{
  "contractName": "Recomendacao",
  "abi": [
    {
      "inputs": [
        {
          "internalType": "uint256",
          "name": "",
          "type": "uint256"
        }
      ],
      "name": "ArrayUsuario",
      "outputs": [
        {
          "internalType": "uint256",
          "name": "id",
          "type": "uint256"
        },
        {
          "internalType": "string",
          "name": "listaPrevisao",
          "type": "string"
        }
      ],
      "stateMutability": "view",
      "type": "function",
      "constant": true
    },
    {
      "inputs": [
        {
          "internalType": "uint256",
          "name": "id",
          "type": "uint256"
        },
        {
          "internalType": "string",
          "name": "previsao",
          "type": "string"
        }
      ],
      "name": "novoUsuario",
      "outputs": [],
      "stateMutability": "nonpayable",
      "type": "function"
    },
    {
      "inputs": [
        {
          "internalType": "uint256",
          "name": "id",
          "type": "uint256"
        }
      ],
      "name": "deletarUsuario",
      "outputs": [
        {
          "internalType": "bool",
          "name": "boolean",
          "type": "bool"
        }
      ],
      "stateMutability": "nonpayable",
      "type": "function"
    },
    {
      "inputs": [
        {
          "internalType": "uint256",
          "name": "id",
          "type": "uint256"
        }
      ],
      "name": "getUsuario",
      "outputs": [
        {
          "components": [
            {
              "internalType": "uint256",
              "name": "id",
              "type": "uint256"
            },
            {
              "internalType": "string",
              "name": "listaPrevisao",
              "type": "string"
            }
          ],
          "internalType": "struct Recomendacao.Usuario",
          "name": "user",
          "type": "tuple"
        }
      ],
      "stateMutability": "view",
      "type": "function",
      "constant": true
    },
    {
      "inputs": [],
      "name": "numeroUsuarios",
      "outputs": [
        {
          "internalType": "uint256",
          "name": "entityCount",
          "type": "uint256"
        }
      ],
      "stateMutability": "view",
      "type": "function",
      "constant": true
    }
  ],
  "bytecode": "0x608060405234801561001057600080fd5b5061094b806100206000396000f3fe608060405234801561001057600080fd5b50600436106100575760003560e01c8063774d60bc1461005c5780637a67a5b61461008d578063814344bd146100bd5780638f90248a146100db578063b51cf23a146100f7575b600080fd5b61007660048036038101906100719190610631565b610127565b6040516100849291906107e6565b60405180910390f35b6100a760048036038101906100a29190610631565b6101e3565b6040516100b4919061078e565b60405180910390f35b6100c5610311565b6040516100d291906107cb565b60405180910390f35b6100f560048036038101906100f0919061065a565b61031d565b005b610111600480360381019061010c9190610631565b6103d7565b60405161011e91906107a9565b60405180910390f35b6000818154811061013757600080fd5b90600052602060002090600202016000915090508060000154908060010180546101609061088c565b80601f016020809104026020016040519081016040528092919081815260200182805461018c9061088c565b80156101d95780601f106101ae576101008083540402835291602001916101d9565b820191906000526020600020905b8154815290600101906020018083116101bc57829003601f168201915b5050505050905082565b60008060008381548110610220577f4e487b7100000000000000000000000000000000000000000000000000000000600052603260045260246000fd5b9060005260206000209060020201600001541415801561029657506000808381548110610276577f4e487b7100000000000000000000000000000000000000000000000000000000600052603260045260246000fd5b906000526020600020906002020160010180546102929061088c565b9050115b1561030757600082815481106102d5577f4e487b7100000000000000000000000000000000000000000000000000000000600052603260045260246000fd5b90600052602060002090600202016000808201600090556001820160006102fc91906104d5565b50506001905061030c565b600090505b919050565b60008080549050905090565b610325610515565b8381600001818152505082828080601f016020809104026020016040519081016040528093929190818152602001838380828437600081840152601f19601f82011690508083019250505050505050816020018190525060008190806001815401808255809150506001900390600052602060002090600202016000909190919091506000820151816000015560208201518160010190805190602001906103ce92919061052f565b50505050505050565b6103df610515565b60008281548110610419577f4e487b7100000000000000000000000000000000000000000000000000000000600052603260045260246000fd5b90600052602060002090600202016040518060400160405290816000820154815260200160018201805461044c9061088c565b80601f01602080910402602001604051908101604052809291908181526020018280546104789061088c565b80156104c55780601f1061049a576101008083540402835291602001916104c5565b820191906000526020600020905b8154815290600101906020018083116104a857829003601f168201915b5050505050815250509050919050565b5080546104e19061088c565b6000825580601f106104f35750610512565b601f01602090049060005260206000209081019061051191906105b5565b5b50565b604051806040016040528060008152602001606081525090565b82805461053b9061088c565b90600052602060002090601f01602090048101928261055d57600085556105a4565b82601f1061057657805160ff19168380011785556105a4565b828001600101855582156105a4579182015b828111156105a3578251825591602001919060010190610588565b5b5090506105b191906105b5565b5090565b5b808211156105ce5760008160009055506001016105b6565b5090565b60008083601f8401126105e457600080fd5b8235905067ffffffffffffffff8111156105fd57600080fd5b60208301915083600182028301111561061557600080fd5b9250929050565b60008135905061062b816108fe565b92915050565b60006020828403121561064357600080fd5b60006106518482850161061c565b91505092915050565b60008060006040848603121561066f57600080fd5b600061067d8682870161061c565b935050602084013567ffffffffffffffff81111561069a57600080fd5b6106a6868287016105d2565b92509250509250925092565b6106bb81610843565b82525050565b60006106cc82610816565b6106d68185610821565b93506106e6818560208601610859565b6106ef816108ed565b840191505092915050565b600061070582610816565b61070f8185610832565b935061071f818560208601610859565b610728816108ed565b840191505092915050565b600060408301600083015161074b6000860182610770565b506020830151848203602086015261076382826106c1565b9150508091505092915050565b6107798161084f565b82525050565b6107888161084f565b82525050565b60006020820190506107a360008301846106b2565b92915050565b600060208201905081810360008301526107c38184610733565b905092915050565b60006020820190506107e0600083018461077f565b92915050565b60006040820190506107fb600083018561077f565b818103602083015261080d81846106fa565b90509392505050565b600081519050919050565b600082825260208201905092915050565b600082825260208201905092915050565b60008115159050919050565b6000819050919050565b60005b8381101561087757808201518184015260208101905061085c565b83811115610886576000848401525b50505050565b600060028204905060018216806108a457607f821691505b602082108114156108b8576108b76108be565b5b50919050565b7f4e487b7100000000000000000000000000000000000000000000000000000000600052602260045260246000fd5b6000601f19601f8301169050919050565b6109078161084f565b811461091257600080fd5b5056fea2646970667358221220e4ffac2dbc4fc8587200de2efd5f9b9406e689b26fac1dcaa4f08b9022f673f364736f6c63430008040033",
  "immutableReferences": {},
  "source": "// contracts/Box.sol\r\n// SPDX-License-Identifier: MIT\r\npragma solidity ^0.8.0;\r\n\r\ncontract Recomendacao {\r\n\r\n  struct Usuario {\r\n    uint id;\r\n    string listaPrevisao;\r\n  }\r\n\r\n  Usuario[] public ArrayUsuario;\r\n\r\n  function novoUsuario(uint id, string calldata previsao) public{\r\n    Usuario memory _novoUsuario;\r\n    _novoUsuario.id = id;\r\n    _novoUsuario.listaPrevisao = previsao;\r\n    ArrayUsuario.push(_novoUsuario);\r\n    return;\r\n  }\r\n\r\n  function deletarUsuario(uint id) public returns(bool boolean) {\r\n    if(ArrayUsuario[id].id != 0 && bytes(ArrayUsuario[id].listaPrevisao).length > 0)\r\n    {\r\n        delete ArrayUsuario[id];\r\n        return true;\r\n    }\r\n    else\r\n    {\r\n        return false;\r\n    }\r\n    \r\n  }\r\n\r\n  function getUsuario(uint id) public view returns(Usuario memory user) {\r\n    return ArrayUsuario[id];\r\n  }\r\n\r\n  function numeroUsuarios() public view returns(uint entityCount) {\r\n    return ArrayUsuario.length;\r\n  }\r\n}",
  "sourcePath": "C:\\Users\\Win 10\\Documents\\block\\uploadChain\\contracts\\Recomendacao.sol",
  "compiler": {
    "name": "solc",
    "version": "0.8.4+commit.c7e474f2.Emscripten.clang"
  },
  "schemaVersion": "3.4.11",
  "updatedAt": "2022-12-07T02:12:02.186Z",
  "networkType": "ethereum",
  "devdoc": {
    "kind": "dev",
    "methods": {},
    "version": 1
  },
  "userdoc": {
    "kind": "user",
    "methods": {},
    "version": 1
  }
}